{
  "_format": "hh-sol-artifact-1",
  "contractName": "PPIRate",
  "sourceName": "contracts/PPIRate.sol",
  "abi": [
    {
      "inputs": [
        {
          "internalType": "uint256",
          "name": "start",
          "type": "uint256"
        },
        {
          "internalType": "uint256",
          "name": "end",
          "type": "uint256"
        }
      ],
      "name": "calculateReward",
      "outputs": [
        {
          "internalType": "uint256",
          "name": "reward",
          "type": "uint256"
        }
      ],
      "stateMutability": "view",
      "type": "function"
    },
    {
      "inputs": [
        {
          "components": [
            {
              "internalType": "uint256",
              "name": "startTime",
              "type": "uint256"
            },
            {
              "internalType": "uint256",
              "name": "rate",
              "type": "uint256"
            }
          ],
          "internalType": "struct PPIRate.Rate[]",
          "name": "rates",
          "type": "tuple[]"
        }
      ],
      "name": "initialize",
      "outputs": [],
      "stateMutability": "nonpayable",
      "type": "function"
    },
    {
      "inputs": [],
      "name": "initialized",
      "outputs": [
        {
          "internalType": "bool",
          "name": "",
          "type": "bool"
        }
      ],
      "stateMutability": "view",
      "type": "function"
    },
    {
      "inputs": [
        {
          "internalType": "uint256",
          "name": "",
          "type": "uint256"
        }
      ],
      "name": "timeRate",
      "outputs": [
        {
          "internalType": "uint256",
          "name": "startTime",
          "type": "uint256"
        },
        {
          "internalType": "uint256",
          "name": "rate",
          "type": "uint256"
        }
      ],
      "stateMutability": "view",
      "type": "function"
    }
  ],
  "bytecode": "0x608060405234801561001057600080fd5b506106a1806100206000396000f3fe608060405234801561001057600080fd5b506004361061004c5760003560e01c806313ed084614610051578063158ef93e1461007757806345e7a99514610094578063a86f5203146100bc575b600080fd5b61006461005f3660046105cb565b6100d1565b6040519081526020015b60405180910390f35b6000546100849060ff1681565b604051901515815260200161006e565b6100a76100a23660046105b3565b610294565b6040805192835260208301919091520161006e565b6100cf6100ca366004610543565b6102c2565b005b600154600090815b8181101561028c57816100ed8260016105ec565b1080156101355750600161010182826105ec565b8154811061011f57634e487b7160e01b600052603260045260246000fd5b9060005260206000209060020201600001548510155b1561013f5761027c565b60006001828154811061016257634e487b7160e01b600052603260045260246000fd5b9060005260206000209060020201600001549050808511610183575061028c565b8581101561018e5750845b848361019b8460016105ec565b1080156101e257508060016101b085826105ec565b815481106101ce57634e487b7160e01b600052603260045260246000fd5b906000526020600020906002020160000154105b156102265760016101f384826105ec565b8154811061021157634e487b7160e01b600052603260045260246000fd5b90600052602060002090600202016000015490505b6102308282610623565b6001848154811061025157634e487b7160e01b600052603260045260246000fd5b90600052602060002090600202016001015461026d9190610604565b61027790866105ec565b945050505b6102858161063a565b90506100d9565b505092915050565b600181815481106102a457600080fd5b60009182526020909120600290910201805460019091015490915082565b60005460ff16156103405760405162461bcd60e51b815260206004820152602360248201527f4e656564496e697469616c697a653a20616c726561647920696e697469616c6960448201527f7a6564000000000000000000000000000000000000000000000000000000000060648201526084015b60405180910390fd5b8061038d5760405162461bcd60e51b815260206004820152601360248201527f505049526174653a20656d7074792072617465000000000000000000000000006044820152606401610337565b818161039a600182610623565b8181106103b757634e487b7160e01b600052603260045260246000fd5b905060400201602001356000146104105760405162461bcd60e51b815260206004820152601260248201527f505049526174653a206e6576657220656e6400000000000000000000000000006044820152606401610337565b4260005b82811015610530578184848381811061043d57634e487b7160e01b600052603260045260246000fd5b90506040020160000135116104945760405162461bcd60e51b815260206004820152601060248201527f505049526174653a20696e76616c6964000000000000000000000000000000006044820152606401610337565b8383828181106104b457634e487b7160e01b600052603260045260246000fd5b90506040020160000135915060018484838181106104e257634e487b7160e01b600052603260045260246000fd5b83546001810185556000948552602090942060409091029290920192600202909101905061051d828281358155602082013560018201555050565b5050806105299061063a565b9050610414565b50506000805460ff191660011790555050565b60008060208385031215610555578182fd5b823567ffffffffffffffff8082111561056c578384fd5b818501915085601f83011261057f578384fd5b81358181111561058d578485fd5b8660206040830285010111156105a1578485fd5b60209290920196919550909350505050565b6000602082840312156105c4578081fd5b5035919050565b600080604083850312156105dd578182fd5b50508035926020909101359150565b600082198211156105ff576105ff610655565b500190565b600081600019048311821515161561061e5761061e610655565b500290565b60008282101561063557610635610655565b500390565b600060001982141561064e5761064e610655565b5060010190565b634e487b7160e01b600052601160045260246000fdfea2646970667358221220bba22ca2eaa7fd6b1f4a1061356c15c7cab50b04bb5ac0e8fe177deb9fed4ba164736f6c63430008020033",
  "linkReferences": {},
  "deployedLinkReferences": {}
}